{
  "contractName": "IconCrowdSale",
  "abi": [
    {
      "constant": true,
      "inputs": [],
      "name": "endTime",
      "outputs": [
        {
          "name": "",
          "type": "uint256"
        }
      ],
      "payable": false,
      "stateMutability": "view",
      "type": "function"
    },
    {
      "constant": true,
      "inputs": [],
      "name": "startBlock",
      "outputs": [
        {
          "name": "",
          "type": "uint256"
        }
      ],
      "payable": false,
      "stateMutability": "view",
      "type": "function"
    },
    {
      "constant": true,
      "inputs": [],
      "name": "wallet",
      "outputs": [
        {
          "name": "",
          "type": "address"
        }
      ],
      "payable": false,
      "stateMutability": "view",
      "type": "function"
    },
    {
      "constant": true,
      "inputs": [
        {
          "name": "",
          "type": "address"
        }
      ],
      "name": "_saleValue",
      "outputs": [
        {
          "name": "exists",
          "type": "bool"
        },
        {
          "name": "account",
          "type": "address"
        },
        {
          "name": "amount",
          "type": "uint256"
        },
        {
          "name": "balance",
          "type": "uint256"
        },
        {
          "name": "data",
          "type": "bytes"
        }
      ],
      "payable": false,
      "stateMutability": "view",
      "type": "function"
    },
    {
      "constant": true,
      "inputs": [],
      "name": "ceiling",
      "outputs": [
        {
          "name": "",
          "type": "uint256"
        }
      ],
      "payable": false,
      "stateMutability": "view",
      "type": "function"
    },
    {
      "constant": true,
      "inputs": [],
      "name": "owner",
      "outputs": [
        {
          "name": "",
          "type": "address"
        }
      ],
      "payable": false,
      "stateMutability": "view",
      "type": "function"
    },
    {
      "constant": true,
      "inputs": [],
      "name": "maxValue",
      "outputs": [
        {
          "name": "",
          "type": "uint256"
        }
      ],
      "payable": false,
      "stateMutability": "view",
      "type": "function"
    },
    {
      "constant": true,
      "inputs": [],
      "name": "minValue",
      "outputs": [
        {
          "name": "",
          "type": "uint256"
        }
      ],
      "payable": false,
      "stateMutability": "view",
      "type": "function"
    },
    {
      "constant": true,
      "inputs": [],
      "name": "totalReceived",
      "outputs": [
        {
          "name": "",
          "type": "uint256"
        }
      ],
      "payable": false,
      "stateMutability": "view",
      "type": "function"
    },
    {
      "constant": true,
      "inputs": [],
      "name": "tokenOwner",
      "outputs": [
        {
          "name": "",
          "type": "address"
        }
      ],
      "payable": false,
      "stateMutability": "view",
      "type": "function"
    },
    {
      "constant": true,
      "inputs": [],
      "name": "icxToken",
      "outputs": [
        {
          "name": "",
          "type": "address"
        }
      ],
      "payable": false,
      "stateMutability": "view",
      "type": "function"
    },
    {
      "constant": true,
      "inputs": [],
      "name": "priceFactor",
      "outputs": [
        {
          "name": "",
          "type": "uint256"
        }
      ],
      "payable": false,
      "stateMutability": "view",
      "type": "function"
    },
    {
      "inputs": [
        {
          "name": "_token",
          "type": "address"
        },
        {
          "name": "_tokenOwner",
          "type": "address"
        },
        {
          "name": "_wallet",
          "type": "address"
        },
        {
          "name": "_ceiling",
          "type": "uint256"
        },
        {
          "name": "_priceFactor",
          "type": "uint256"
        },
        {
          "name": "_maxValue",
          "type": "uint256"
        },
        {
          "name": "_minValue",
          "type": "uint256"
        }
      ],
      "payable": false,
      "stateMutability": "nonpayable",
      "type": "constructor"
    },
    {
      "payable": true,
      "stateMutability": "payable",
      "type": "fallback"
    },
    {
      "anonymous": false,
      "inputs": [
        {
          "indexed": false,
          "name": "sender",
          "type": "address"
        },
        {
          "indexed": false,
          "name": "amount",
          "type": "uint256"
        }
      ],
      "name": "FundTransfer",
      "type": "event"
    },
    {
      "constant": false,
      "inputs": [
        {
          "name": "_token",
          "type": "address"
        }
      ],
      "name": "setupToken",
      "outputs": [],
      "payable": false,
      "stateMutability": "nonpayable",
      "type": "function"
    },
    {
      "constant": false,
      "inputs": [],
      "name": "startSale",
      "outputs": [],
      "payable": false,
      "stateMutability": "nonpayable",
      "type": "function"
    },
    {
      "constant": false,
      "inputs": [
        {
          "name": "_ceiling",
          "type": "uint256"
        },
        {
          "name": "_priceFactor",
          "type": "uint256"
        },
        {
          "name": "_maxValue",
          "type": "uint256"
        },
        {
          "name": "_minValue",
          "type": "uint256"
        }
      ],
      "name": "changeSettings",
      "outputs": [],
      "payable": false,
      "stateMutability": "nonpayable",
      "type": "function"
    },
    {
      "constant": true,
      "inputs": [
        {
          "name": "src",
          "type": "address"
        }
      ],
      "name": "balanceOf",
      "outputs": [
        {
          "name": "",
          "type": "uint256"
        }
      ],
      "payable": false,
      "stateMutability": "view",
      "type": "function"
    },
    {
      "constant": true,
      "inputs": [
        {
          "name": "src",
          "type": "address"
        }
      ],
      "name": "amountOf",
      "outputs": [
        {
          "name": "",
          "type": "uint256"
        }
      ],
      "payable": false,
      "stateMutability": "view",
      "type": "function"
    },
    {
      "constant": true,
      "inputs": [
        {
          "name": "src",
          "type": "bytes"
        }
      ],
      "name": "saleData",
      "outputs": [
        {
          "name": "",
          "type": "address"
        }
      ],
      "payable": false,
      "stateMutability": "view",
      "type": "function"
    },
    {
      "constant": true,
      "inputs": [],
      "name": "isSaleOpen",
      "outputs": [
        {
          "name": "",
          "type": "bool"
        }
      ],
      "payable": false,
      "stateMutability": "view",
      "type": "function"
    },
    {
      "constant": false,
      "inputs": [],
      "name": "halt",
      "outputs": [],
      "payable": false,
      "stateMutability": "nonpayable",
      "type": "function"
    }
  ],
  "bytecode": "0x6060604052341561000f57600080fd5b60405160e0806118088339810160405280805190602001909190805190602001909190805190602001909190805190602001909190805190602001909190805190602001909190805190602001909190505060008673ffffffffffffffffffffffffffffffffffffffff161415801561009f575060008573ffffffffffffffffffffffffffffffffffffffff1614155b80156100ac575060008414155b80156100b9575060008314155b15156100c457600080fd5b85600360006101000a81548173ffffffffffffffffffffffffffffffffffffffff021916908373ffffffffffffffffffffffffffffffffffffffff16021790555033600260006101000a81548173ffffffffffffffffffffffffffffffffffffffff021916908373ffffffffffffffffffffffffffffffffffffffff16021790555084600160006101000a81548173ffffffffffffffffffffffffffffffffffffffff021916908373ffffffffffffffffffffffffffffffffffffffff16021790555083600481905550826005819055508160098190555080600a8190555060008060146101000a81548160ff021916908360038111156101c157fe5b021790555060008773ffffffffffffffffffffffffffffffffffffffff1614151561024b57866000806101000a81548173ffffffffffffffffffffffffffffffffffffffff021916908373ffffffffffffffffffffffffffffffffffffffff1602179055506001600060146101000a81548160ff0219169083600381111561024557fe5b02179055505b505050505050506115a7806102616000396000f300606060405260043610610112576000357c0100000000000000000000000000000000000000000000000000000000900463ffffffff16806301608f5f1461084b5780631a081330146108985780633197cbb6146108c557806348cd4cb1146108ee578063521eb2731461091757806355cbf9eb1461096c5780635ed7ca5b14610a6a57806370a0823114610a7f578063753ed1bd14610acc5780638da5cb5b14610af557806394a5c2e414610b4a578063963e63c714610b735780639e7cf86b14610b9c578063a04290f914610bda578063a3c2c46214610c77578063a3e6761014610ca0578063b3c4a36b14610cf5578063b66a0e5d14610d2e578063c831151314610d43578063dfb2866d14610d98575b600080600080600080600954141515610139576001600954013410151561013857600080fd5b5b6000600a54141515610159576001600a54033411151561015857600080fd5b5b3373ffffffffffffffffffffffffffffffffffffffff16600160009054906101000a900473ffffffffffffffffffffffffffffffffffffffff1673ffffffffffffffffffffffffffffffffffffffff16141515156101b657600080fd5b600080369050141515156101c957600080fd5b60001515600c60003660405180838380828437820191505092505050908152602001604051809103902060000160009054906101000a900460ff16151514151561021257600080fd5b6000600b60003373ffffffffffffffffffffffffffffffffffffffff1673ffffffffffffffffffffffffffffffffffffffff1681526020019081526020016000206001015414151561026357600080fd5b600280600381111561027157fe5b600060149054906101000a900460ff16600381111561028c57fe5b14151561029857600080fd5b3495506102b2600554600454610dc190919063ffffffff16565b945084861115610312576102cf8587610ddc90919063ffffffff16565b93503373ffffffffffffffffffffffffffffffffffffffff166108fc859081150290604051600060405180830381858888f19350505050151561030e57fe5b8495505b61032786600754610df590919063ffffffff16565b60078190555061034260055487610e1390919063ffffffff16565b925061035983600454610ddc90919063ffffffff16565b6004819055506000809054906101000a900473ffffffffffffffffffffffffffffffffffffffff1673ffffffffffffffffffffffffffffffffffffffff166323b872dd600360009054906101000a900473ffffffffffffffffffffffffffffffffffffffff1633866040518463ffffffff167c0100000000000000000000000000000000000000000000000000000000028152600401808473ffffffffffffffffffffffffffffffffffffffff1673ffffffffffffffffffffffffffffffffffffffff1681526020018373ffffffffffffffffffffffffffffffffffffffff1673ffffffffffffffffffffffffffffffffffffffff1681526020018281526020019350505050602060405180830381600087803b151561047857600080fd5b5af1151561048557600080fd5b50505060405180519050507f97c35397cb6acebd9df368c206404479fc4c80dd6034d1b28943aaf5826318703384604051808373ffffffffffffffffffffffffffffffffffffffff1673ffffffffffffffffffffffffffffffffffffffff1681526020018281526020019250505060405180910390a1600b60003373ffffffffffffffffffffffffffffffffffffffff1673ffffffffffffffffffffffffffffffffffffffff168152602001908152602001600020915060018260000160006101000a81548160ff021916908315150217905550338260000160016101000a81548173ffffffffffffffffffffffffffffffffffffffff021916908373ffffffffffffffffffffffffffffffffffffffff1602179055506000368360030191906105b092919061144f565b5085826001018190555082826002018190555081600c6000366040518083838082843782019150509250505090815260200160405180910390206000820160009054906101000a900460ff168160000160006101000a81548160ff0219169083151502179055506000820160019054906101000a900473ffffffffffffffffffffffffffffffffffffffff168160000160016101000a81548173ffffffffffffffffffffffffffffffffffffffff021916908373ffffffffffffffffffffffffffffffffffffffff1602179055506001820154816001015560028201548160020155600382018160030190805460018160011615610100020316600290046106b99291906114cf565b5090505081600b60003373ffffffffffffffffffffffffffffffffffffffff1673ffffffffffffffffffffffffffffffffffffffff1681526020019081526020016000206000820160009054906101000a900460ff168160000160006101000a81548160ff0219169083151502179055506000820160019054906101000a900473ffffffffffffffffffffffffffffffffffffffff168160000160016101000a81548173ffffffffffffffffffffffffffffffffffffffff021916908373ffffffffffffffffffffffffffffffffffffffff1602179055506001820154816001015560028201548160020155600382018160030190805460018160011615610100020316600290046107cc9291906114cf565b50905050600160009054906101000a900473ffffffffffffffffffffffffffffffffffffffff1673ffffffffffffffffffffffffffffffffffffffff166108fc879081150290604051600060405180830381858888f19350505050151561083257600080fd5b8486141561084357610842610e46565b5b505050505050005b341561085657600080fd5b610882600480803573ffffffffffffffffffffffffffffffffffffffff16906020019091905050610e7b565b6040518082815260200191505060405180910390f35b34156108a357600080fd5b6108ab610ec7565b604051808215151515815260200191505060405180910390f35b34156108d057600080fd5b6108d8610ef7565b6040518082815260200191505060405180910390f35b34156108f957600080fd5b610901610efd565b6040518082815260200191505060405180910390f35b341561092257600080fd5b61092a610f03565b604051808273ffffffffffffffffffffffffffffffffffffffff1673ffffffffffffffffffffffffffffffffffffffff16815260200191505060405180910390f35b341561097757600080fd5b6109a3600480803573ffffffffffffffffffffffffffffffffffffffff16906020019091905050610f29565b60405180861515151581526020018573ffffffffffffffffffffffffffffffffffffffff1673ffffffffffffffffffffffffffffffffffffffff16815260200184815260200183815260200180602001828103825283818151815260200191508051906020019080838360005b83811015610a2b578082015181840152602081019050610a10565b50505050905090810190601f168015610a585780820380516001836020036101000a031916815260200191505b50965050505050505060405180910390f35b3415610a7557600080fd5b610a7d611024565b005b3415610a8a57600080fd5b610ab6600480803573ffffffffffffffffffffffffffffffffffffffff1690602001909190505061108a565b6040518082815260200191505060405180910390f35b3415610ad757600080fd5b610adf6110d6565b6040518082815260200191505060405180910390f35b3415610b0057600080fd5b610b086110dc565b604051808273ffffffffffffffffffffffffffffffffffffffff1673ffffffffffffffffffffffffffffffffffffffff16815260200191505060405180910390f35b3415610b5557600080fd5b610b5d611102565b6040518082815260200191505060405180910390f35b3415610b7e57600080fd5b610b86611108565b6040518082815260200191505060405180910390f35b3415610ba757600080fd5b610bd8600480803590602001909190803590602001909190803590602001909190803590602001909190505061110e565b005b3415610be557600080fd5b610c35600480803590602001908201803590602001908080601f016020809104026020016040519081016040528093929190818152602001838380828437820191505050505050919050506111a9565b604051808273ffffffffffffffffffffffffffffffffffffffff1673ffffffffffffffffffffffffffffffffffffffff16815260200191505060405180910390f35b3415610c8257600080fd5b610c8a611241565b6040518082815260200191505060405180910390f35b3415610cab57600080fd5b610cb3611247565b604051808273ffffffffffffffffffffffffffffffffffffffff1673ffffffffffffffffffffffffffffffffffffffff16815260200191505060405180910390f35b3415610d0057600080fd5b610d2c600480803573ffffffffffffffffffffffffffffffffffffffff1690602001909190505061126d565b005b3415610d3957600080fd5b610d41611356565b005b3415610d4e57600080fd5b610d56611415565b604051808273ffffffffffffffffffffffffffffffffffffffff1673ffffffffffffffffffffffffffffffffffffffff16815260200191505060405180910390f35b3415610da357600080fd5b610dab61143a565b6040518082815260200191505060405180910390f35b6000808284811515610dcf57fe5b0490508091505092915050565b6000610dea83831115611440565b818303905092915050565b6000808284019050610e0984821015611440565b8091505092915050565b6000808284029050610e3c6000851480610e375750838583811515610e3457fe5b04145b611440565b8091505092915050565b6003600060146101000a81548160ff02191690836003811115610e6557fe5b0217905550600060048190555042600881905550565b6000600b60008373ffffffffffffffffffffffffffffffffffffffff1673ffffffffffffffffffffffffffffffffffffffff168152602001908152602001600020600101549050919050565b600060026003811115610ed657fe5b600060149054906101000a900460ff166003811115610ef157fe5b14905090565b60085481565b60065481565b600160009054906101000a900473ffffffffffffffffffffffffffffffffffffffff1681565b600b6020528060005260406000206000915090508060000160009054906101000a900460ff16908060000160019054906101000a900473ffffffffffffffffffffffffffffffffffffffff1690806001015490806002015490806003018054600181600116156101000203166002900480601f01602080910402602001604051908101604052809291908181526020018280546001816001161561010002031660029004801561101a5780601f10610fef5761010080835404028352916020019161101a565b820191906000526020600020905b815481529060010190602001808311610ffd57829003601f168201915b5050505050905085565b600260009054906101000a900473ffffffffffffffffffffffffffffffffffffffff1673ffffffffffffffffffffffffffffffffffffffff163373ffffffffffffffffffffffffffffffffffffffff1614151561108057600080fd5b611088610e46565b565b6000600b60008373ffffffffffffffffffffffffffffffffffffffff1673ffffffffffffffffffffffffffffffffffffffff168152602001908152602001600020600201549050919050565b60045481565b600260009054906101000a900473ffffffffffffffffffffffffffffffffffffffff1681565b60095481565b600a5481565b600260009054906101000a900473ffffffffffffffffffffffffffffffffffffffff1673ffffffffffffffffffffffffffffffffffffffff163373ffffffffffffffffffffffffffffffffffffffff1614151561116a57600080fd5b6000841415801561117c575060008314155b151561118757600080fd5b83600481905550826005819055508160098190555080600a8190555050505050565b6000600c826040518082805190602001908083835b6020831015156111e357805182526020820191506020810190506020830392506111be565b6001836020036101000a038019825116818451168082178552505050505050905001915050908152602001604051809103902060000160019054906101000a900473ffffffffffffffffffffffffffffffffffffffff169050919050565b60075481565b600360009054906101000a900473ffffffffffffffffffffffffffffffffffffffff1681565b600260009054906101000a900473ffffffffffffffffffffffffffffffffffffffff1673ffffffffffffffffffffffffffffffffffffffff163373ffffffffffffffffffffffffffffffffffffffff161415156112c957600080fd5b60008173ffffffffffffffffffffffffffffffffffffffff16141515156112ef57600080fd5b806000806101000a81548173ffffffffffffffffffffffffffffffffffffffff021916908373ffffffffffffffffffffffffffffffffffffffff1602179055506001600060146101000a81548160ff0219169083600381111561134e57fe5b021790555050565b600260009054906101000a900473ffffffffffffffffffffffffffffffffffffffff1673ffffffffffffffffffffffffffffffffffffffff163373ffffffffffffffffffffffffffffffffffffffff161415156113b257600080fd5b60018060038111156113c057fe5b600060149054906101000a900460ff1660038111156113db57fe5b1415156113e757600080fd5b6002600060146101000a81548160ff0219169083600381111561140657fe5b02179055504360068190555050565b6000809054906101000a900473ffffffffffffffffffffffffffffffffffffffff1681565b60055481565b80151561144c57600080fd5b50565b828054600181600116156101000203166002900490600052602060002090601f016020900481019282601f1061149057803560ff19168380011785556114be565b828001600101855582156114be579182015b828111156114bd5782358255916020019190600101906114a2565b5b5090506114cb9190611556565b5090565b828054600181600116156101000203166002900490600052602060002090601f016020900481019282601f106115085780548555611545565b8280016001018555821561154557600052602060002091601f016020900482015b82811115611544578254825591600101919060010190611529565b5b5090506115529190611556565b5090565b61157891905b8082111561157457600081600090555060010161155c565b5090565b905600a165627a7a723058207d2a57b649bc0e976c6dbd5759f93790ca0058d47f88f28e647e6c499701b55b0029",
  "source": "pragma solidity ^0.4.11;\n\nimport \"../token/erc20.sol\";\nimport \"../util/SafeMath.sol\";\n\ncontract IconCrowdSale {\n    using SafeMath for uint;\n    ERC20 public icxToken;\n    Stages stage;\n    address public wallet;\n    address public owner;\n    address public tokenOwner;\n    uint public ceiling;\n    uint public priceFactor; // ratio\n    uint public startBlock;\n    uint public totalReceived;\n    uint public endTime;\n\n    uint public maxValue; // max ETH\n    uint public minValue;\n\n    // collect log\n    event FundTransfer (address sender, uint amount);\n\n    struct ExistAccount {\n        bool exists; // set to true\n        address account; // sending account\n        uint amount; // sending amount\n        uint balance; // token value\n        bytes data; // sending data\n    }\n\n    mapping(address => ExistAccount) public _saleValue;\n    mapping(bytes => ExistAccount) _saleData;\n\n    /*\n        Check is owner address\n    */\n    modifier isOwner() {\n        // Only owner is allowed to proceed\n        require (msg.sender == owner);\n        _;\n    }\n\n    /**\n        Check Valid Payload\n    */\n    modifier isValidPayload() {\n        // max\n        if(maxValue != 0)\n            require(msg.value < maxValue + 1); // check Max\n        if(minValue != 0)\n            require(msg.value > minValue - 1);\n        require(wallet != msg.sender);\n        // check data value\n        require(msg.data.length != 0);\n        _;\n\n    }\n\n    /*\n        Check exists sale list\n    */\n    modifier isExists() {\n        require(_saleData[msg.data].exists == false);\n        require(_saleValue[msg.sender].amount == 0);\n        _;\n    }\n\n    /*\n     *  Modifiers\n     */\n    modifier atStage(Stages _stage) {\n        require(stage == _stage);\n        _;\n    }\n\n    /*\n     *  Enums\n     */\n    enum Stages {\n    SaleDeployed,\n    SaleSetUp,\n    SaleStarted,\n    SaleEnded\n    }\n\n\n    /// init\n    /// @param _token token address\n    /// @param _tokenOwner token owner wallet address\n    /// @param _wallet sale ETH wallet\n    /// @param _ceiling sale token total value\n    /// @param _priceFactor token and ETH ratio\n    /// @param _maxValue maximum ETH balance\n    /// @param _minValue minimum ETH balance\n\n    function IconCrowdSale(address _token, address _tokenOwner, address _wallet, uint _ceiling, uint _priceFactor, uint _maxValue, uint _minValue)\n    public\n    {\n        require (_tokenOwner != 0 && _wallet != 0 && _ceiling != 0 && _priceFactor != 0);\n        tokenOwner = _tokenOwner;\n        owner = msg.sender;\n        wallet = _wallet;\n        ceiling = _ceiling;\n        priceFactor = _priceFactor;\n        maxValue = _maxValue;\n        minValue = _minValue;\n        stage = Stages.SaleDeployed;\n\n        if(_token != 0){ // setup token\n            icxToken = ERC20(_token);\n            stage = Stages.SaleSetUp;\n        }\n    }\n\n    // setupToken\n    function setupToken(address _token) isOwner {\n        require(_token != 0);\n        icxToken = ERC20(_token);\n        stage = Stages.SaleSetUp;\n    }\n\n    /// @dev Start Sale\n    function startSale()\n    public\n    isOwner\n    atStage(Stages.SaleSetUp)\n    {\n        stage = Stages.SaleStarted;\n        startBlock = block.number;\n    }\n\n\n    /* The function without name is the default function that is called whenever anyone sends funds to a contract */\n    function()\n    isValidPayload\n    isExists\n    atStage(Stages.SaleStarted)\n    payable\n    {\n        uint amount = msg.value;\n        uint maxAmount = ceiling.div(priceFactor);\n        // refund\n        if (amount > maxAmount){\n            uint refund = amount.sub(maxAmount);\n            assert(msg.sender.send(refund));\n            amount = maxAmount;\n        }\n        totalReceived = totalReceived.add(amount);\n        // calculate token\n        uint token = amount.mul(priceFactor);\n        ceiling = ceiling.sub(token);\n\n        // give token to sender\n        icxToken.transferFrom(tokenOwner, msg.sender, token);\n        FundTransfer(msg.sender, token);\n\n        ExistAccount crowdData = _saleValue[msg.sender];\n        crowdData.exists = true;\n        crowdData.account = msg.sender;\n        crowdData.data = msg.data;\n        crowdData.amount = amount;\n        crowdData.balance = token;\n        // add SaleData\n        _saleData[msg.data] = crowdData;\n        _saleValue[msg.sender] = crowdData;\n        // send to wallet\n        wallet.transfer(amount);\n\n        // token sold out\n        if (amount == maxAmount)\n            finalizeSale();\n    }\n\n    /// @dev Changes auction ceiling and start price factor before auction is started.\n    /// @param _ceiling Updated auction ceiling.\n    /// @param _priceFactor Updated start price factor.\n    /// @param _maxValue Maximum balance of ETH\n    /// @param _minValue Minimum balance of ETH\n    function changeSettings(uint _ceiling, uint _priceFactor, uint _maxValue, uint _minValue)\n    public\n    isOwner\n    {\n        require(_ceiling != 0 && _priceFactor != 0);\n        ceiling = _ceiling;\n        priceFactor = _priceFactor;\n        maxValue = _maxValue;\n        minValue = _minValue;\n    }\n\n    // token balance\n    // @param src sender wallet address\n    function balanceOf(address src) constant returns (uint256)\n    {\n        return _saleValue[src].balance;\n    }\n\n    // amount ETH value\n    // @param src sender wallet address\n    function amountOf(address src) constant returns(uint256)\n    {\n        return _saleValue[src].amount;\n    }\n\n    // sale data\n    // @param src ICON homepage uuid\n    function saleData(bytes src) constant returns(address)\n    {\n        return _saleData[src].account;\n    }\n\n    // Check sale is open\n    function isSaleOpen() constant returns (bool)\n    {\n        return stage == Stages.SaleStarted;\n    }\n\n    // CrowdSale halt\n    function halt()\n    isOwner\n    {\n        finalizeSale();\n    }\n\n    // END of this sale\n    function finalizeSale()\n    private\n    {\n        stage = Stages.SaleEnded;\n        // remain token send to owner\n        ceiling = 0;\n        endTime = now;\n    }\n}\n",
  "sourcePath": "/home/nour/Documents/gits/ico/contracts/ico/IconCrowdSale.sol",
  "compiler": {
    "name": "solc",
    "version": "0.4.21+commit.dfe3193c.Emscripten.clang"
  },
  "schemaVersion": "2.0.0",
  "updatedAt": "2018-06-17T01:06:42.007Z"
}